{"abi":[{"type":"constructor","inputs":[{"name":"_entryPoint","type":"address","internalType":"address"}],"stateMutability":"nonpayable"},{"type":"function","name":"addStake","inputs":[{"name":"unstakeDelaySec","type":"uint32","internalType":"uint32"}],"outputs":[],"stateMutability":"payable"},{"type":"function","name":"deposit","inputs":[],"outputs":[],"stateMutability":"payable"},{"type":"function","name":"entryPoint","inputs":[],"outputs":[{"name":"","type":"address","internalType":"contract IEntryPoint"}],"stateMutability":"view"},{"type":"function","name":"getDeposit","inputs":[],"outputs":[{"name":"","type":"uint256","internalType":"uint256"}],"stateMutability":"view"},{"type":"function","name":"owner","inputs":[],"outputs":[{"name":"","type":"address","internalType":"address"}],"stateMutability":"view"},{"type":"function","name":"postOp","inputs":[{"name":"mode","type":"uint8","internalType":"enum IPaymaster.PostOpMode"},{"name":"context","type":"bytes","internalType":"bytes"},{"name":"actualGasCost","type":"uint256","internalType":"uint256"},{"name":"actualUserOpFeePerGas","type":"uint256","internalType":"uint256"}],"outputs":[],"stateMutability":"nonpayable"},{"type":"function","name":"renounceOwnership","inputs":[],"outputs":[],"stateMutability":"nonpayable"},{"type":"function","name":"transferOwnership","inputs":[{"name":"newOwner","type":"address","internalType":"address"}],"outputs":[],"stateMutability":"nonpayable"},{"type":"function","name":"unlockStake","inputs":[],"outputs":[],"stateMutability":"nonpayable"},{"type":"function","name":"validatePaymasterUserOp","inputs":[{"name":"userOp","type":"tuple","internalType":"struct PackedUserOperation","components":[{"name":"sender","type":"address","internalType":"address"},{"name":"nonce","type":"uint256","internalType":"uint256"},{"name":"initCode","type":"bytes","internalType":"bytes"},{"name":"callData","type":"bytes","internalType":"bytes"},{"name":"accountGasLimits","type":"bytes32","internalType":"bytes32"},{"name":"preVerificationGas","type":"uint256","internalType":"uint256"},{"name":"gasFees","type":"bytes32","internalType":"bytes32"},{"name":"paymasterAndData","type":"bytes","internalType":"bytes"},{"name":"signature","type":"bytes","internalType":"bytes"}]},{"name":"userOpHash","type":"bytes32","internalType":"bytes32"},{"name":"maxCost","type":"uint256","internalType":"uint256"}],"outputs":[{"name":"context","type":"bytes","internalType":"bytes"},{"name":"validationData","type":"uint256","internalType":"uint256"}],"stateMutability":"nonpayable"},{"type":"function","name":"withdrawStake","inputs":[{"name":"withdrawAddress","type":"address","internalType":"address payable"}],"outputs":[],"stateMutability":"nonpayable"},{"type":"function","name":"withdrawTo","inputs":[{"name":"withdrawAddress","type":"address","internalType":"address payable"},{"name":"amount","type":"uint256","internalType":"uint256"}],"outputs":[],"stateMutability":"nonpayable"},{"type":"event","name":"OwnershipTransferred","inputs":[{"name":"previousOwner","type":"address","indexed":true,"internalType":"address"},{"name":"newOwner","type":"address","indexed":true,"internalType":"address"}],"anonymous":false},{"type":"error","name":"OwnableInvalidOwner","inputs":[{"name":"owner","type":"address","internalType":"address"}]},{"type":"error","name":"OwnableUnauthorizedAccount","inputs":[{"name":"account","type":"address","internalType":"address"}]}],"bytecode":{"object":"0x60a060405234801561001057600080fd5b50604051610c2f380380610c2f83398101604081905261002f9161018a565b80338061005757604051631e4fbdf760e01b8152600060048201526024015b60405180910390fd5b6100608161007c565b5061006a816100cc565b6001600160a01b0316608052506101dc565b600080546001600160a01b038381166001600160a01b0319831681178455604051919092169283917f8be0079c531659141344cd1fd0a4f28419497f9722a3daafe3b4186f6b6457e09190a35050565b6040516301ffc9a760e01b815263122a0e9b60e31b60048201526001600160a01b038216906301ffc9a790602401602060405180830381865afa158015610117573d6000803e3d6000fd5b505050506040513d601f19601f8201168201806040525081019061013b91906101ba565b6101875760405162461bcd60e51b815260206004820152601e60248201527f49456e747279506f696e7420696e74657266616365206d69736d617463680000604482015260640161004e565b50565b60006020828403121561019c57600080fd5b81516001600160a01b03811681146101b357600080fd5b9392505050565b6000602082840312156101cc57600080fd5b815180151581146101b357600080fd5b608051610a076102286000396000818161019101528181610255015281816102ec015281816103800152818161041a0152818161048a0152818161051701526105df0152610a076000f3fe6080604052600436106100a75760003560e01c8063b0d691fe11610064578063b0d691fe1461017f578063bb9fe6bf146101b3578063c23a5cea146101c8578063c399ec88146101e8578063d0e30db01461020b578063f2fde38b1461021357600080fd5b80630396cb60146100ac578063205c2878146100c157806352b7512c146100e1578063715018a6146101185780637c627b211461012d5780638da5cb5b1461014d575b600080fd5b6100bf6100ba366004610726565b610233565b005b3480156100cd57600080fd5b506100bf6100dc366004610768565b6102be565b3480156100ed57600080fd5b506101016100fc366004610794565b610330565b60405161010f9291906107e8565b60405180910390f35b34801561012457600080fd5b506100bf610353565b34801561013957600080fd5b506100bf61014836600461083d565b610367565b34801561015957600080fd5b506000546001600160a01b03165b6040516001600160a01b03909116815260200161010f565b34801561018b57600080fd5b506101677f000000000000000000000000000000000000000000000000000000000000000081565b3480156101bf57600080fd5b506100bf610376565b3480156101d457600080fd5b506100bf6101e33660046108d5565b6103f3565b3480156101f457600080fd5b506101fd610472565b60405190815260200161010f565b6100bf610502565b34801561021f57600080fd5b506100bf61022e3660046108d5565b610564565b61023b6105a7565b604051621cb65b60e51b815263ffffffff821660048201527f00000000000000000000000000000000000000000000000000000000000000006001600160a01b031690630396cb609034906024016000604051808303818588803b1580156102a257600080fd5b505af11580156102b6573d6000803e3d6000fd5b505050505050565b6102c66105a7565b60405163040b850f60e31b81526001600160a01b038381166004830152602482018390527f0000000000000000000000000000000000000000000000000000000000000000169063205c287890604401600060405180830381600087803b1580156102a257600080fd5b6060600061033c6105d4565b610347858585610644565b91509150935093915050565b61035b6105a7565b610365600061069e565b565b61036f6105d4565b5050505050565b61037e6105a7565b7f00000000000000000000000000000000000000000000000000000000000000006001600160a01b031663bb9fe6bf6040518163ffffffff1660e01b8152600401600060405180830381600087803b1580156103d957600080fd5b505af11580156103ed573d6000803e3d6000fd5b50505050565b6103fb6105a7565b60405163611d2e7560e11b81526001600160a01b0382811660048301527f0000000000000000000000000000000000000000000000000000000000000000169063c23a5cea90602401600060405180830381600087803b15801561045e57600080fd5b505af115801561036f573d6000803e3d6000fd5b6040516370a0823160e01b81523060048201526000907f00000000000000000000000000000000000000000000000000000000000000006001600160a01b0316906370a0823190602401602060405180830381865afa1580156104d9573d6000803e3d6000fd5b505050506040513d601f19601f820116820180604052508101906104fd91906108f2565b905090565b60405163b760faf960e01b81523060048201527f00000000000000000000000000000000000000000000000000000000000000006001600160a01b03169063b760faf99034906024016000604051808303818588803b15801561045e57600080fd5b61056c6105a7565b6001600160a01b03811661059b57604051631e4fbdf760e01b8152600060048201526024015b60405180910390fd5b6105a48161069e565b50565b6000546001600160a01b031633146103655760405163118cdaa760e01b8152336004820152602401610592565b336001600160a01b037f000000000000000000000000000000000000000000000000000000000000000016146103655760405162461bcd60e51b815260206004820152601560248201527414d95b99195c881b9bdd08115b9d1c9e541bda5b9d605a1b6044820152606401610592565b60606000808061065760e088018861090b565b610665916034908290610959565b810190610672919061099e565b91509150610682600082846106ee565b6040805160208101909152600081529890975095505050505050565b600080546001600160a01b038381166001600160a01b0319831681178455604051919092169283917f8be0079c531659141344cd1fd0a4f28419497f9722a3daafe3b4186f6b6457e09190a35050565b600060d08265ffffffffffff16901b60a08465ffffffffffff16901b85610716576000610719565b60015b60ff161717949350505050565b60006020828403121561073857600080fd5b813563ffffffff8116811461074c57600080fd5b9392505050565b6001600160a01b03811681146105a457600080fd5b6000806040838503121561077b57600080fd5b823561078681610753565b946020939093013593505050565b6000806000606084860312156107a957600080fd5b833567ffffffffffffffff8111156107c057600080fd5b840161012081870312156107d357600080fd5b95602085013595506040909401359392505050565b604081526000835180604084015260005b8181101561081657602081870181015160608684010152016107f9565b506000606082850101526060601f19601f8301168401019150508260208301529392505050565b60008060008060006080868803121561085557600080fd5b85356003811061086457600080fd5b9450602086013567ffffffffffffffff8082111561088157600080fd5b818801915088601f83011261089557600080fd5b8135818111156108a457600080fd5b8960208285010111156108b657600080fd5b9699602092909201985095966040810135965060600135945092505050565b6000602082840312156108e757600080fd5b813561074c81610753565b60006020828403121561090457600080fd5b5051919050565b6000808335601e1984360301811261092257600080fd5b83018035915067ffffffffffffffff82111561093d57600080fd5b60200191503681900382131561095257600080fd5b9250929050565b6000808585111561096957600080fd5b8386111561097657600080fd5b5050820193919092039150565b803565ffffffffffff8116811461099957600080fd5b919050565b600080604083850312156109b157600080fd5b6109ba83610983565b91506109c860208401610983565b9050925092905056fea264697066735822122061babf3d33fd14a03d3a25e16d5f4c2c5275f6e19e612ff65c830ff0c83e96c864736f6c63430008190033","linkReferences":{}},"methodIdentifiers":{"addStake(uint32)":"0396cb60","deposit()":"d0e30db0","entryPoint()":"b0d691fe","getDeposit()":"c399ec88","owner()":"8da5cb5b","postOp(uint8,bytes,uint256,uint256)":"7c627b21","renounceOwnership()":"715018a6","transferOwnership(address)":"f2fde38b","unlockStake()":"bb9fe6bf","validatePaymasterUserOp((address,uint256,bytes,bytes,bytes32,uint256,bytes32,bytes,bytes),bytes32,uint256)":"52b7512c","withdrawStake(address)":"c23a5cea","withdrawTo(address,uint256)":"205c2878"},"id":1}