{"abi":[{"type":"constructor","inputs":[{"name":"_entryPoint","type":"address","internalType":"address"}],"stateMutability":"nonpayable"},{"type":"function","name":"addFunds","inputs":[],"outputs":[],"stateMutability":"payable"},{"type":"function","name":"addStake","inputs":[{"name":"unstakeDelaySec","type":"uint32","internalType":"uint32"}],"outputs":[],"stateMutability":"payable"},{"type":"function","name":"deposit","inputs":[],"outputs":[],"stateMutability":"payable"},{"type":"function","name":"entryPoint","inputs":[],"outputs":[{"name":"","type":"address","internalType":"contract IEntryPoint"}],"stateMutability":"view"},{"type":"function","name":"getDeposit","inputs":[],"outputs":[{"name":"","type":"uint256","internalType":"uint256"}],"stateMutability":"view"},{"type":"function","name":"owner","inputs":[],"outputs":[{"name":"","type":"address","internalType":"address"}],"stateMutability":"view"},{"type":"function","name":"postOp","inputs":[{"name":"mode","type":"uint8","internalType":"enum IPaymaster.PostOpMode"},{"name":"context","type":"bytes","internalType":"bytes"},{"name":"actualGasCost","type":"uint256","internalType":"uint256"},{"name":"actualUserOpFeePerGas","type":"uint256","internalType":"uint256"}],"outputs":[],"stateMutability":"nonpayable"},{"type":"function","name":"renounceOwnership","inputs":[],"outputs":[],"stateMutability":"nonpayable"},{"type":"function","name":"transferOwnership","inputs":[{"name":"newOwner","type":"address","internalType":"address"}],"outputs":[],"stateMutability":"nonpayable"},{"type":"function","name":"unlockStake","inputs":[],"outputs":[],"stateMutability":"nonpayable"},{"type":"function","name":"validatePaymasterUserOp","inputs":[{"name":"userOp","type":"tuple","internalType":"struct PackedUserOperation","components":[{"name":"sender","type":"address","internalType":"address"},{"name":"nonce","type":"uint256","internalType":"uint256"},{"name":"initCode","type":"bytes","internalType":"bytes"},{"name":"callData","type":"bytes","internalType":"bytes"},{"name":"accountGasLimits","type":"bytes32","internalType":"bytes32"},{"name":"preVerificationGas","type":"uint256","internalType":"uint256"},{"name":"gasFees","type":"bytes32","internalType":"bytes32"},{"name":"paymasterAndData","type":"bytes","internalType":"bytes"},{"name":"signature","type":"bytes","internalType":"bytes"}]},{"name":"userOpHash","type":"bytes32","internalType":"bytes32"},{"name":"maxCost","type":"uint256","internalType":"uint256"}],"outputs":[{"name":"context","type":"bytes","internalType":"bytes"},{"name":"validationData","type":"uint256","internalType":"uint256"}],"stateMutability":"nonpayable"},{"type":"function","name":"withdrawStake","inputs":[{"name":"withdrawAddress","type":"address","internalType":"address payable"}],"outputs":[],"stateMutability":"nonpayable"},{"type":"function","name":"withdrawTo","inputs":[{"name":"withdrawAddress","type":"address","internalType":"address payable"},{"name":"amount","type":"uint256","internalType":"uint256"}],"outputs":[],"stateMutability":"nonpayable"},{"type":"event","name":"OwnershipTransferred","inputs":[{"name":"previousOwner","type":"address","indexed":true,"internalType":"address"},{"name":"newOwner","type":"address","indexed":true,"internalType":"address"}],"anonymous":false},{"type":"error","name":"OwnableInvalidOwner","inputs":[{"name":"owner","type":"address","internalType":"address"}]},{"type":"error","name":"OwnableUnauthorizedAccount","inputs":[{"name":"account","type":"address","internalType":"address"}]}],"bytecode":{"object":"0x60a060405234801561001057600080fd5b50604051610b42380380610b4283398101604081905261002f9161018a565b80338061005757604051631e4fbdf760e01b8152600060048201526024015b60405180910390fd5b6100608161007c565b5061006a816100cc565b6001600160a01b0316608052506101dc565b600080546001600160a01b038381166001600160a01b0319831681178455604051919092169283917f8be0079c531659141344cd1fd0a4f28419497f9722a3daafe3b4186f6b6457e09190a35050565b6040516301ffc9a760e01b815263122a0e9b60e31b60048201526001600160a01b038216906301ffc9a790602401602060405180830381865afa158015610117573d6000803e3d6000fd5b505050506040513d601f19601f8201168201806040525081019061013b91906101ba565b6101875760405162461bcd60e51b815260206004820152601e60248201527f49456e747279506f696e7420696e74657266616365206d69736d617463680000604482015260640161004e565b50565b60006020828403121561019c57600080fd5b81516001600160a01b03811681146101b357600080fd5b9392505050565b6000602082840312156101cc57600080fd5b815180151581146101b357600080fd5b60805161091a610228600039600081816101b4015281816102780152818161030f015281816103f00152818161048a015281816104fa01528181610587015261064a015261091a6000f3fe6080604052600436106100c25760003560e01c8063a26759cb1161007f578063c23a5cea11610059578063c23a5cea146101eb578063c399ec881461020b578063d0e30db01461022e578063f2fde38b1461023657600080fd5b8063a26759cb1461019a578063b0d691fe146101a2578063bb9fe6bf146101d657600080fd5b80630396cb60146100c7578063205c2878146100dc57806352b7512c146100fc578063715018a6146101335780637c627b21146101485780638da5cb5b14610168575b600080fd5b6100da6100d53660046106ff565b610256565b005b3480156100e857600080fd5b506100da6100f7366004610741565b6102e1565b34801561010857600080fd5b5061011c61011736600461076d565b610353565b60405161012a9291906107c1565b60405180910390f35b34801561013f57600080fd5b506100da61037a565b34801561015457600080fd5b506100da610163366004610816565b61038e565b34801561017457600080fd5b506000546001600160a01b03165b6040516001600160a01b03909116815260200161012a565b6100da61039d565b3480156101ae57600080fd5b506101827f000000000000000000000000000000000000000000000000000000000000000081565b3480156101e257600080fd5b506100da6103e6565b3480156101f757600080fd5b506100da6102063660046108ae565b610463565b34801561021757600080fd5b506102206104e2565b60405190815260200161012a565b6100da610572565b34801561024257600080fd5b506100da6102513660046108ae565b6105d4565b61025e610612565b604051621cb65b60e51b815263ffffffff821660048201527f00000000000000000000000000000000000000000000000000000000000000006001600160a01b031690630396cb609034906024016000604051808303818588803b1580156102c557600080fd5b505af11580156102d9573d6000803e3d6000fd5b505050505050565b6102e9610612565b60405163040b850f60e31b81526001600160a01b038381166004830152602482018390527f0000000000000000000000000000000000000000000000000000000000000000169063205c287890604401600060405180830381600087803b1580156102c557600080fd5b6060600061035f61063f565b50506040805160008082526020820190925294909350915050565b610382610612565b61038c60006106af565b565b61039661063f565b5050505050565b6000341161038c5760405162461bcd60e51b8152602060048201526011602482015270139bc8199d5b991cc81c1c9bdd9a591959607a1b60448201526064015b60405180910390fd5b6103ee610612565b7f00000000000000000000000000000000000000000000000000000000000000006001600160a01b031663bb9fe6bf6040518163ffffffff1660e01b8152600401600060405180830381600087803b15801561044957600080fd5b505af115801561045d573d6000803e3d6000fd5b50505050565b61046b610612565b60405163611d2e7560e11b81526001600160a01b0382811660048301527f0000000000000000000000000000000000000000000000000000000000000000169063c23a5cea90602401600060405180830381600087803b1580156104ce57600080fd5b505af1158015610396573d6000803e3d6000fd5b6040516370a0823160e01b81523060048201526000907f00000000000000000000000000000000000000000000000000000000000000006001600160a01b0316906370a0823190602401602060405180830381865afa158015610549573d6000803e3d6000fd5b505050506040513d601f19601f8201168201806040525081019061056d91906108cb565b905090565b60405163b760faf960e01b81523060048201527f00000000000000000000000000000000000000000000000000000000000000006001600160a01b03169063b760faf99034906024016000604051808303818588803b1580156104ce57600080fd5b6105dc610612565b6001600160a01b03811661060657604051631e4fbdf760e01b8152600060048201526024016103dd565b61060f816106af565b50565b6000546001600160a01b0316331461038c5760405163118cdaa760e01b81523360048201526024016103dd565b336001600160a01b037f0000000000000000000000000000000000000000000000000000000000000000161461038c5760405162461bcd60e51b815260206004820152601560248201527414d95b99195c881b9bdd08115b9d1c9e541bda5b9d605a1b60448201526064016103dd565b600080546001600160a01b038381166001600160a01b0319831681178455604051919092169283917f8be0079c531659141344cd1fd0a4f28419497f9722a3daafe3b4186f6b6457e09190a35050565b60006020828403121561071157600080fd5b813563ffffffff8116811461072557600080fd5b9392505050565b6001600160a01b038116811461060f57600080fd5b6000806040838503121561075457600080fd5b823561075f8161072c565b946020939093013593505050565b60008060006060848603121561078257600080fd5b833567ffffffffffffffff81111561079957600080fd5b840161012081870312156107ac57600080fd5b95602085013595506040909401359392505050565b604081526000835180604084015260005b818110156107ef57602081870181015160608684010152016107d2565b506000606082850101526060601f19601f8301168401019150508260208301529392505050565b60008060008060006080868803121561082e57600080fd5b85356003811061083d57600080fd5b9450602086013567ffffffffffffffff8082111561085a57600080fd5b818801915088601f83011261086e57600080fd5b81358181111561087d57600080fd5b89602082850101111561088f57600080fd5b9699602092909201985095966040810135965060600135945092505050565b6000602082840312156108c057600080fd5b81356107258161072c565b6000602082840312156108dd57600080fd5b505191905056fea264697066735822122036095146a8cdf1661940d099062800238558080e18f98b7497303df7dbe1c08d64736f6c63430008190033","linkReferences":{}},"methodIdentifiers":{"addFunds()":"a26759cb","addStake(uint32)":"0396cb60","deposit()":"d0e30db0","entryPoint()":"b0d691fe","getDeposit()":"c399ec88","owner()":"8da5cb5b","postOp(uint8,bytes,uint256,uint256)":"7c627b21","renounceOwnership()":"715018a6","transferOwnership(address)":"f2fde38b","unlockStake()":"bb9fe6bf","validatePaymasterUserOp((address,uint256,bytes,bytes,bytes32,uint256,bytes32,bytes,bytes),bytes32,uint256)":"52b7512c","withdrawStake(address)":"c23a5cea","withdrawTo(address,uint256)":"205c2878"},"id":3}