{"abi":[{"type":"function","name":"getNumber","inputs":[],"outputs":[{"name":"","type":"uint256","internalType":"uint256"}],"stateMutability":"view"},{"type":"function","name":"increment","inputs":[],"outputs":[],"stateMutability":"nonpayable"},{"type":"function","name":"number","inputs":[],"outputs":[{"name":"","type":"uint256","internalType":"uint256"}],"stateMutability":"view"}],"bytecode":{"object":"0x6080604052348015600f57600080fd5b5060dd80601d6000396000f3fe6080604052348015600f57600080fd5b5060043610603c5760003560e01c80638381f58a146041578063d09de08a14605b578063f2c9ecd8146063575b600080fd5b604960005481565b60405190815260200160405180910390f35b6061606a565b005b6000546049565b6001600080828254607a91906081565b9091555050565b8082018082111560a157634e487b7160e01b600052601160045260246000fd5b9291505056fea264697066735822122039376e3cedc0eb72a8bb4cfebc89e129f3bd3c2841f97dd74966a7a3a383c08864736f6c63430008190033","linkReferences":{}},"methodIdentifiers":{"getNumber()":"f2c9ecd8","increment()":"d09de08a","number()":"8381f58a"},"id":2}