{"abi":[{"type":"constructor","inputs":[{"name":"owner","type":"address","internalType":"address"},{"name":"entryPoint","type":"address","internalType":"contract IEntryPoint"}],"stateMutability":"nonpayable"},{"type":"receive","stateMutability":"payable"},{"type":"function","name":"ACCOUNT_IMPLEMENTATION","inputs":[],"outputs":[{"name":"","type":"address","internalType":"contract MultiOwnerLightAccount"}],"stateMutability":"view"},{"type":"function","name":"ENTRY_POINT","inputs":[],"outputs":[{"name":"","type":"address","internalType":"contract IEntryPoint"}],"stateMutability":"view"},{"type":"function","name":"acceptOwnership","inputs":[],"outputs":[],"stateMutability":"nonpayable"},{"type":"function","name":"addStake","inputs":[{"name":"unstakeDelay","type":"uint32","internalType":"uint32"},{"name":"amount","type":"uint256","internalType":"uint256"}],"outputs":[],"stateMutability":"payable"},{"type":"function","name":"createAccount","inputs":[{"name":"owners","type":"address[]","internalType":"address[]"},{"name":"salt","type":"uint256","internalType":"uint256"}],"outputs":[{"name":"account","type":"address","internalType":"contract MultiOwnerLightAccount"}],"stateMutability":"nonpayable"},{"type":"function","name":"createAccountSingle","inputs":[{"name":"owner","type":"address","internalType":"address"},{"name":"salt","type":"uint256","internalType":"uint256"}],"outputs":[{"name":"account","type":"address","internalType":"contract MultiOwnerLightAccount"}],"stateMutability":"nonpayable"},{"type":"function","name":"getAddress","inputs":[{"name":"owners","type":"address[]","internalType":"address[]"},{"name":"salt","type":"uint256","internalType":"uint256"}],"outputs":[{"name":"","type":"address","internalType":"address"}],"stateMutability":"view"},{"type":"function","name":"owner","inputs":[],"outputs":[{"name":"","type":"address","internalType":"address"}],"stateMutability":"view"},{"type":"function","name":"pendingOwner","inputs":[],"outputs":[{"name":"","type":"address","internalType":"address"}],"stateMutability":"view"},{"type":"function","name":"renounceOwnership","inputs":[],"outputs":[],"stateMutability":"view"},{"type":"function","name":"transferOwnership","inputs":[{"name":"newOwner","type":"address","internalType":"address"}],"outputs":[],"stateMutability":"nonpayable"},{"type":"function","name":"unlockStake","inputs":[],"outputs":[],"stateMutability":"nonpayable"},{"type":"function","name":"withdraw","inputs":[{"name":"to","type":"address","internalType":"address payable"},{"name":"token","type":"address","internalType":"address"},{"name":"amount","type":"uint256","internalType":"uint256"}],"outputs":[],"stateMutability":"nonpayable"},{"type":"function","name":"withdrawStake","inputs":[{"name":"to","type":"address","internalType":"address payable"}],"outputs":[],"stateMutability":"nonpayable"},{"type":"event","name":"OwnershipTransferStarted","inputs":[{"name":"previousOwner","type":"address","indexed":true,"internalType":"address"},{"name":"newOwner","type":"address","indexed":true,"internalType":"address"}],"anonymous":false},{"type":"event","name":"OwnershipTransferred","inputs":[{"name":"previousOwner","type":"address","indexed":true,"internalType":"address"},{"name":"newOwner","type":"address","indexed":true,"internalType":"address"}],"anonymous":false},{"type":"error","name":"AddressEmptyCode","inputs":[{"name":"target","type":"address","internalType":"address"}]},{"type":"error","name":"AddressInsufficientBalance","inputs":[{"name":"account","type":"address","internalType":"address"}]},{"type":"error","name":"FailedInnerCall","inputs":[]},{"type":"error","name":"InvalidAction","inputs":[]},{"type":"error","name":"InvalidEntryPoint","inputs":[{"name":"entryPoint","type":"address","internalType":"address"}]},{"type":"error","name":"InvalidOwners","inputs":[]},{"type":"error","name":"OwnableInvalidOwner","inputs":[{"name":"owner","type":"address","internalType":"address"}]},{"type":"error","name":"OwnableUnauthorizedAccount","inputs":[{"name":"account","type":"address","internalType":"address"}]},{"type":"error","name":"OwnersArrayEmpty","inputs":[]},{"type":"error","name":"OwnersLimitExceeded","inputs":[]},{"type":"error","name":"SafeERC20FailedOperation","inputs":[{"name":"token","type":"address","internalType":"address"}]},{"type":"error","name":"TransferFailed","inputs":[]},{"type":"error","name":"ZeroAddressNotAllowed","inputs":[]}],"bytecode":{"object":"0x60c060405234801561001057600080fd5b50604051613b10380380613b1083398101604081905261002f9161026c565b816001600160a01b03811661005f57604051631e4fbdf760e01b8152600060048201526024015b60405180910390fd5b610068816100c4565b50610072816100e0565b8060405161007f9061024a565b6001600160a01b039091168152602001604051809103906000f0801580156100ab573d6000803e3d6000fd5b506001600160a01b0390811660a05216608052506102a6565b600180546001600160a01b03191690556100dd81610119565b50565b6100f18163122a0e9b60e31b610169565b6100dd5760405163075b76fd60e21b81526001600160a01b0382166004820152602401610056565b600080546001600160a01b038381166001600160a01b0319831681178455604051919092169283917f8be0079c531659141344cd1fd0a4f28419497f9722a3daafe3b4186f6b6457e09190a35050565b60006101748361018c565b8015610185575061018583836101c0565b9392505050565b600061019f826301ffc9a760e01b6101c0565b80156101ba57506101b8826001600160e01b03196101c0565b155b92915050565b6040516001600160e01b031982166024820152600090819060440160408051601f19818403018152919052602080820180516001600160e01b03166301ffc9a760e01b178152825192935060009283928392909183918a617530fa92503d91506000519050828015610233575060208210155b801561023f5750600081115b979650505050505050565b6126ea8061142683390190565b6001600160a01b03811681146100dd57600080fd5b6000806040838503121561027f57600080fd5b825161028a81610257565b602084015190925061029b81610257565b809150509250929050565b60805160a0516111316102f56000396000818161013b015281816103480152818161046401526104e00152600081816101b9015281816105bd0152818161067e015261083101526111316000f3fe6080604052600436106100e15760003560e01c8063b54c02f21161007f578063d9caed1211610059578063d9caed1214610250578063e30c397814610270578063f2fde38b1461028e578063fbb1c3d4146102ae57600080fd5b8063b54c02f2146101fb578063bb9fe6bf1461021b578063c23a5cea1461023057600080fd5b806379ba5097116100bb57806379ba5097146101745780638da5cb5b1461018957806394430fa5146101a757806394f7e8e0146101db57600080fd5b80632796c323146100ed578063290ab98414610129578063715018a61461015d57600080fd5b366100e857005b600080fd5b3480156100f957600080fd5b5061010d610108366004610dbf565b6102c1565b6040516001600160a01b03909116815260200160405180910390f35b34801561013557600080fd5b5061010d7f000000000000000000000000000000000000000000000000000000000000000081565b34801561016957600080fd5b506101726103ea565b005b34801561018057600080fd5b5061017261040b565b34801561019557600080fd5b506000546001600160a01b031661010d565b3480156101b357600080fd5b5061010d7f000000000000000000000000000000000000000000000000000000000000000081565b3480156101e757600080fd5b5061010d6101f6366004610e01565b610454565b34801561020757600080fd5b5061010d610216366004610ecc565b61049a565b34801561022757600080fd5b506101726105b3565b34801561023c57600080fd5b5061017261024b366004610f47565b610630565b34801561025c57600080fd5b5061017261026b366004610f64565b6106dd565b34801561027c57600080fd5b506001546001600160a01b031661010d565b34801561029a57600080fd5b506101726102a9366004610f47565b61079e565b6101726102bc366004610fa5565b61080f565b60006001600160a01b0383166102ea5760405163f02e8ac160e01b815260040160405180910390fd5b60408051600180825281830190925260009160208083019080368337019050509050838160008151811061032057610320610fcc565b60200260200101906001600160a01b031690816001600160a01b0316815250506000806103767f0000000000000000000000000000000000000000000000000000000000000000610371858861089b565b6108ce565b91509150809350816103e15760405163a224cee760e01b81526001600160a01b0385169063a224cee7906103ae908690600401611027565b600060405180830381600087803b1580156103c857600080fd5b505af11580156103dc573d6000803e3d6000fd5b505050505b50505092915050565b6103f26108e8565b604051634a7f394f60e01b815260040160405180910390fd5b60015433906001600160a01b031681146104485760405163118cdaa760e01b81526001600160a01b03821660048201526024015b60405180910390fd5b61045181610917565b50565b600061045f83610930565b6104937f000000000000000000000000000000000000000000000000000000000000000061048d858561089b565b306109f6565b9392505050565b60006104d884848080602002602001604051908101604052809392919081815260200183836020028082843760009201919091525061093092505050565b60008061053d7f00000000000000000000000000000000000000000000000000000000000000006103718888808060200260200160405190810160405280939291908181526020018383602002808284376000920191909152508a925061089b915050565b91509150809250816105aa5760405163a224cee760e01b81526001600160a01b0384169063a224cee790610577908990899060040161103a565b600060405180830381600087803b15801561059157600080fd5b505af11580156105a5573d6000803e3d6000fd5b505050505b50509392505050565b6105bb6108e8565b7f00000000000000000000000000000000000000000000000000000000000000006001600160a01b031663bb9fe6bf6040518163ffffffff1660e01b8152600401600060405180830381600087803b15801561061657600080fd5b505af115801561062a573d6000803e3d6000fd5b50505050565b6106386108e8565b6001600160a01b03811661065f576040516342bcdf7f60e11b815260040160405180910390fd5b60405163611d2e7560e11b81526001600160a01b0382811660048301527f0000000000000000000000000000000000000000000000000000000000000000169063c23a5cea90602401600060405180830381600087803b1580156106c257600080fd5b505af11580156106d6573d6000803e3d6000fd5b5050505050565b6106e56108e8565b6001600160a01b03831661070c576040516342bcdf7f60e11b815260040160405180910390fd5b6001600160a01b03821661078e576000836001600160a01b03164760405160006040518083038185875af1925050503d8060008114610767576040519150601f19603f3d011682016040523d82523d6000602084013e61076c565b606091505b505090508061062a576040516312171d8360e31b815260040160405180910390fd5b610799828483610a88565b505050565b6107a66108e8565b600180546001600160a01b0383166001600160a01b031990911681179091556107d76000546001600160a01b031690565b6001600160a01b03167f38d16b8cac22d99fc7c124b9cd0de2d3fa1faef420bfe791d8c362d765e2270060405160405180910390a350565b6108176108e8565b604051621cb65b60e51b815263ffffffff831660048201527f00000000000000000000000000000000000000000000000000000000000000006001600160a01b031690630396cb609083906024016000604051808303818588803b15801561087e57600080fd5b505af1158015610892573d6000803e3d6000fd5b50505050505050565b600082826040516020016108b0929190611088565b60405160208183030381529060405280519060200120905092915050565b6000806108dd60008585610ada565b915091509250929050565b6000546001600160a01b031633146109155760405163118cdaa760e01b815233600482015260240161043f565b565b600180546001600160a01b031916905561045181610bbe565b805160000361095257604051630a5c1dfd60e01b815260040160405180910390fd5b60648151111561097557604051633d3279d360e11b815260040160405180910390fd5b8051600090815b8181101561062a57826001600160a01b03168482815181106109a0576109a0610fcc565b60200260200101516001600160a01b0316116109cf5760405163f02e8ac160e01b815260040160405180910390fd5b8381815181106109e1576109e1610fcc565b6020026020010151925080600101905061097c565b600080610a7285604080517fcc3735a920a3ca505d382bbc545af43d6000803e6038573d6000fd5b3d6000f360609081527f5155f3363d3d373d3d363d7f360894a13ba1a3210667c828492db98dca3e20768352616009602052601e9390935268603d3d8160223d3973600a52605f6021209152600090915290565b9050610a7f818585610c0e565b95945050505050565b604080516001600160a01b038416602482015260448082018490528251808303909101815260649091019091526020810180516001600160e01b031663a9059cbb60e01b179052610799908490610c30565b6000806040517fcc3735a920a3ca505d382bbc545af43d6000803e6038573d6000fd5b3d6000f36060527f5155f3363d3d373d3d363d7f360894a13ba1a3210667c828492db98dca3e207660405261600960205284601e5268603d3d8160223d3973600a52605f60212060358201523060581b815260ff8153836015820152605581209150813b610b865783605f602188f5915081610b815763301164256000526004601cfd5b610bac565b600192508515610bac5760003860003889865af1610bac5763b12d13eb6000526004601cfd5b80604052506000606052935093915050565b600080546001600160a01b038381166001600160a01b0319831681178455604051919092169283917f8be0079c531659141344cd1fd0a4f28419497f9722a3daafe3b4186f6b6457e09190a35050565b600060ff60005350603592835260601b60015260155260556000908120915290565b6000610c456001600160a01b03841683610c93565b90508051600014158015610c6a575080806020019051810190610c6891906110aa565b155b1561079957604051635274afe760e01b81526001600160a01b038416600482015260240161043f565b60606104938383600084600080856001600160a01b03168486604051610cb991906110cc565b60006040518083038185875af1925050503d8060008114610cf6576040519150601f19603f3d011682016040523d82523d6000602084013e610cfb565b606091505b5091509150610d0b868383610d15565b9695505050505050565b606082610d2a57610d2582610d71565b610493565b8151158015610d4157506001600160a01b0384163b155b15610d6a57604051639996b31560e01b81526001600160a01b038516600482015260240161043f565b5080610493565b805115610d815780518082602001fd5b604051630a12f52160e11b815260040160405180910390fd5b6001600160a01b038116811461045157600080fd5b8035610dba81610d9a565b919050565b60008060408385031215610dd257600080fd5b8235610ddd81610d9a565b946020939093013593505050565b634e487b7160e01b600052604160045260246000fd5b60008060408385031215610e1457600080fd5b823567ffffffffffffffff80821115610e2c57600080fd5b818501915085601f830112610e4057600080fd5b8135602082821115610e5457610e54610deb565b8160051b604051601f19603f83011681018181108682111715610e7957610e79610deb565b604052928352818301935084810182019289841115610e9757600080fd5b948201945b83861015610ebc57610ead86610daf565b85529482019493820193610e9c565b9997909101359750505050505050565b600080600060408486031215610ee157600080fd5b833567ffffffffffffffff80821115610ef957600080fd5b818601915086601f830112610f0d57600080fd5b813581811115610f1c57600080fd5b8760208260051b8501011115610f3157600080fd5b6020928301989097509590910135949350505050565b600060208284031215610f5957600080fd5b813561049381610d9a565b600080600060608486031215610f7957600080fd5b8335610f8481610d9a565b92506020840135610f9481610d9a565b929592945050506040919091013590565b60008060408385031215610fb857600080fd5b823563ffffffff81168114610ddd57600080fd5b634e487b7160e01b600052603260045260246000fd5b60008151808452602080850194506020840160005b8381101561101c5781516001600160a01b031687529582019590820190600101610ff7565b509495945050505050565b6020815260006104936020830184610fe2565b60208082528181018390526000908460408401835b8681101561107d57823561106281610d9a565b6001600160a01b03168252918301919083019060010161104f565b509695505050505050565b60408152600061109b6040830185610fe2565b90508260208301529392505050565b6000602082840312156110bc57600080fd5b8151801515811461049357600080fd5b6000825160005b818110156110ed57602081860181015185830152016110d3565b50600092019182525091905056fea264697066735822122051aadd31a71cc84eebb998001b4722c7aca1453e003580b1abc8d30a56ecfcd164736f6c634300081900336101806040523060805234801561001557600080fd5b506040516126ea3803806126ea833981016040819052610034916101d6565b3060a0524660c0527faa296a366a62f6551d3ddfceae892d1791068a359a0d3461aab99dfc6c5fd7006060806100b2604080518082018252601681527f4d756c74694f776e65724c696768744163636f756e7400000000000000000000602080830191909152825180840190935260018352601960f91b9083015291565b815160209283012081519183019190912060e0829052610100819052604080517f8b73c3c69bb8fe3d512ecc4cf759cc79239f7b179b0ffacaa9a75d522b39400f8152938401929092529082015246606082015230608082015260a09020610120525050610160526001600160a01b03811661014052610130610136565b50610206565b60006101426101605190565b805490915068010000000000000000900460ff16156101745760405163f92ee8a960e01b815260040160405180910390fd5b80546001600160401b03908116146101d35780546001600160401b0319166001600160401b0390811782556040519081527fc7f505b2f371ae2175ee4913f4499e1f2633a7b5936321eed1cdaeb6115181d29060200160405180910390a15b50565b6000602082840312156101e857600080fd5b81516001600160a01b03811681146101ff57600080fd5b9392505050565b60805160a05160c05160e051610100516101205161014051610160516124476102a360003960006109ca015260008181610358015281816106ef0152818161079e01528181610b6701528181610bfa01528181610e8101528181610f62015261125301526000610c2b01526000610ce501526000610cbf01526000610c6f01526000610c4c01526000818161081f015261090301526124476000f3fe60806040526004361061012e5760003560e01c80634f1ef286116100ab578063b0d691fe1161006f578063b0d691fe1461033e578063b61d27f614610382578063bc197c81146103a2578063c399ec88146103d1578063d087d288146103e6578063f23a6e61146103fb57600080fd5b80634f1ef286146102ac57806352d1902d146102bf57806384b0196e146102d4578063a224cee7146102fc578063affe39c11461031c57600080fd5b806319822f7c116100f257806319822f7c14610224578063395622471461024457806347e1da2a146102645780634a58db19146102845780634d44560d1461028c57600080fd5b806301ffc9a71461013a5780630a1028c41461016f578063150b7a021461019d5780631626ba7e146101e257806318dfb3c71461020257600080fd5b3661013557005b600080fd5b34801561014657600080fd5b5061015a610155366004611a3b565b610428565b60405190151581526020015b60405180910390f35b34801561017b57600080fd5b5061018f61018a366004611aab565b61047a565b604051908152602001610166565b3480156101a957600080fd5b506101c96101b8366004611b9c565b630a85bd0160e11b95945050505050565b6040516001600160e01b03199091168152602001610166565b3480156101ee57600080fd5b506101c96101fd366004611c0e565b6104e8565b34801561020e57600080fd5b5061022261021d366004611c9d565b610542565b005b34801561023057600080fd5b5061018f61023f366004611d08565b610610565b34801561025057600080fd5b5061022261025f366004611de3565b61062f565b34801561027057600080fd5b5061022261027f366004611e46565b610645565b6102226106ed565b34801561029857600080fd5b506102226102a7366004611edf565b61076d565b6102226102ba366004611f0b565b61081d565b3480156102cb57600080fd5b5061018f6108ff565b3480156102e057600080fd5b506102e961095e565b6040516101669796959493929190611f96565b34801561030857600080fd5b5061022261031736600461202f565b6109c8565b34801561032857600080fd5b50610331610ad8565b60405161016691906120b5565b34801561034a57600080fd5b506040516001600160a01b037f0000000000000000000000000000000000000000000000000000000000000000168152602001610166565b34801561038e57600080fd5b5061022261039d3660046120c8565b610afe565b3480156103ae57600080fd5b506101c96103bd366004612117565b63bc197c8160e01b98975050505050505050565b3480156103dd57600080fd5b5061018f610b47565b3480156103f257600080fd5b5061018f610bd3565b34801561040757600080fd5b506101c96104163660046121d5565b63f23a6e6160e01b9695505050505050565b60006001600160e01b03198216630a85bd0160e11b148061045957506001600160e01b03198216630271189760e51b145b8061047457506001600160e01b031982166301ffc9a760e01b145b92915050565b6000807f5e3baca2936049843f06038876a12f03627b5edc98025751ecf2ac756264019983805190602001206040516020016104c0929190918252602082015260400190565b6040516020818303038152906040528051906020012090506104e181610c29565b9392505050565b600061051e6105178560405160200161050391815260200190565b60405160208183030381529060405261047a565b8484610d41565b156105315750630b135d3f60e11b6104e1565b506001600160e01b03199392505050565b61054a610e76565b82811461056a5760405163512509d360e11b815260040160405180910390fd5b8260005b818110156106085761060086868381811061058b5761058b61223e565b90506020020160208101906105a09190612254565b60008686858181106105b4576105b461223e565b90506020028101906105c69190612271565b8080601f016020809104026020016040519081016040528093929190818152602001838380828437600092019190915250610ee792505050565b60010161056e565b505050505050565b600061061a610f57565b6106248484610fcf565b90506104e182611178565b610637610e76565b61064182826111c5565b5050565b61064d610e76565b848114158061065c5750848314155b1561067a5760405163512509d360e11b815260040160405180910390fd5b8460005b818110156106e3576106db88888381811061069b5761069b61223e565b90506020020160208101906106b09190612254565b8787848181106106c2576106c261223e565b905060200201358686858181106105b4576105b461223e565b60010161067e565b5050505050505050565b7f000000000000000000000000000000000000000000000000000000000000000060405163b760faf960e01b81523060048201526001600160a01b03919091169063b760faf99034906024016000604051808303818588803b15801561075257600080fd5b505af1158015610766573d6000803e3d6000fd5b5050505050565b610775610e76565b6001600160a01b03821661079c576040516342bcdf7f60e11b815260040160405180910390fd5b7f000000000000000000000000000000000000000000000000000000000000000060405163040b850f60e31b81526001600160a01b03848116600483015260248201849052919091169063205c287890604401600060405180830381600087803b15801561080957600080fd5b505af1158015610608573d6000803e3d6000fd5b7f000000000000000000000000000000000000000000000000000000000000000030810361085357639f03a0266000526004601cfd5b61085c84611249565b8360601b60601c93506352d1902d6001527f360894a13ba1a3210667c828492db98dca3e2076cc3735a920a3ca505d382bbc80602060016004601d895afa51146108ae576355299b496001526004601dfd5b847fbc7cd75a20ee27fd9adebab32041f755214dbc6bffa90cc0225b39da2e5c2d3b600038a284905581156108f957604051828482376000388483885af4610766573d6000823e3d81fd5b50505050565b60007f000000000000000000000000000000000000000000000000000000000000000030811461093757639f03a0266000526004601cfd5b7f360894a13ba1a3210667c828492db98dca3e2076cc3735a920a3ca505d382bbc91505090565b600f60f81b60608060008080836109b66040805180820182526016815275135d5b1d1a53dddb995c931a59da1d1058d8dbdd5b9d60521b602080830191909152825180840190935260018352601960f91b9083015291565b97989097965046955030945091925090565b7f00000000000000000000000000000000000000000000000000000000000000008054600160401b810460ff1615906001600160401b0316600081158015610a0d5750825b90506000826001600160401b03166001148015610a295750303b155b905081158015610a37575080155b15610a555760405163f92ee8a960e01b815260040160405180910390fd5b845467ffffffffffffffff191660011785558315610a7f57845460ff60401b1916600160401b1785555b610a898787611251565b8315610acf57845460ff60401b19168555604051600181527fc7f505b2f371ae2175ee4913f4499e1f2633a7b5936321eed1cdaeb6115181d29060200160405180910390a15b50505050505050565b6060610af9610af46000805160206123f283398151915261131f565b6113a1565b905090565b610b06610e76565b6108f9848484848080601f016020809104026020016040519081016040528093929190818152602001838380828437600092019190915250610ee792505050565b6040516370a0823160e01b81523060048201526000906001600160a01b037f000000000000000000000000000000000000000000000000000000000000000016906370a08231906024015b602060405180830381865afa158015610baf573d6000803e3d6000fd5b505050506040513d601f19601f82011682018060405250810190610af991906122b7565b604051631aab3f0d60e11b8152306004820152600060248201819052906001600160a01b037f000000000000000000000000000000000000000000000000000000000000000016906335567e1a90604401610b92565b7f00000000000000000000000000000000000000000000000000000000000000007f000000000000000000000000000000000000000000000000000000000000000030147f0000000000000000000000000000000000000000000000000000000000000000461416610d1c5750604080517f8b73c3c69bb8fe3d512ecc4cf759cc79239f7b179b0ffacaa9a75d522b39400f81527f000000000000000000000000000000000000000000000000000000000000000060208201527f00000000000000000000000000000000000000000000000000000000000000009181019190915246606082015230608082015260a090205b67190100000000000060005280601a5281603a52604260182090506000603a52919050565b60006001821015610d65576040516360cd402d60e01b815260040160405180910390fd5b600083836000818110610d7a57610d7a61223e565b919091013560f81c9150819050610dde57610dd685610d9c85600181896122e6565b8080601f0160208091040260200160405190810160405280939291908181526020018383808284376000920191909152506113e992505050565b9150506104e1565b60011960ff821601610e5d576000610dfa6015600186886122e6565b610e0391612310565b60601c9050610e548187610e1a876015818b6122e6565b8080601f01602080910402602001604051908101604052809392919081815260200183838082843760009201919091525061143992505050565b925050506104e1565b6040516360cd402d60e01b815260040160405180910390fd5b336001600160a01b037f00000000000000000000000000000000000000000000000000000000000000001614801590610eaf5750333014155b8015610ec05750610ebe611464565b155b15610ee557604051634a0bfec160e01b81523360048201526024015b60405180910390fd5b565b600080846001600160a01b03168484604051610f039190612340565b60006040518083038185875af1925050503d8060008114610f40576040519150601f19603f3d011682016040523d82523d6000602084013e610f45565b606091505b50915091508161076657805160208201fd5b336001600160a01b037f00000000000000000000000000000000000000000000000000000000000000001614610ee55760405162461bcd60e51b815260206004820152601c60248201527f6163636f756e743a206e6f742066726f6d20456e747279506f696e74000000006044820152606401610edc565b60006001610fe1610100850185612271565b90501015611002576040516360cd402d60e01b815260040160405180910390fd5b6000611012610100850185612271565b60008181106110235761102361223e565b919091013560f81c91508190506110d6577f19457468657265756d205369676e6564204d6573736167653a0a3332000000006000908152601c849052603c812090611072610100870187612271565b6110809160019082906122e6565b8080601f0160208091040260200160405190810160405280939291908181526020018383808284376000920191909152509293506110cc92506110c79150849050836113e9565b61147c565b9350505050610474565b60011960ff821601610e5d5760006110f2610100860186612271565b611101916015916001916122e6565b61110a91612310565b60601c9050600061111f610100870187612271565b61112d9160159082906122e6565b8080601f0160208091040260200160405190810160405280939291908181526020018383808284376000920191909152509293506110cc92506110c791508490508784611439565b50565b801561117557604051600090339060001990849084818181858888f193505050503d8060008114610766576040519150601f19603f3d011682016040523d82523d6000602084013e610766565b6111ce81611492565b6111d78261153e565b6111ee6000805160206123f28339815191526115e0565b1561120c57604051639aa6ffc360e01b815260040160405180910390fd5b7f9e21fe49fba3f7d0d12e8f5eef3747a76c62e19def530ce9764932707e1f12dd828260405161123d92919061235c565b60405180910390a15050565b611175610e76565b7f00000000000000000000000000000000000000000000000000000000000000006001600160a01b03167ff50e95bb610fe6508fd613e37c8721d1927dd968ed4e0e322193bafb288b6fe983836040516112ac92919061238a565b60405180910390a2610641828280806020026020016040519081016040528093929190818152602001838360200280828437600092018290525092506112f0915050565b604051908082528060200260200182016040528015611319578160200160208202803683370190505b506111c5565b60016000908152602082905260408082205490519183915b6001811615801561134757508015155b1561138c5761fffe198116602060019390930192830285018190526002821615611381576000818152602085905260409020549150611386565b600091505b50611337565b50600181016020028301604052825250919050565b8051606090829060005b818110156113e05760608382815181106113c7576113c761223e565b60209081029190910101805190911c90526001016113ab565b50909392505050565b6000806113f68484611605565b90506114316001600160601b0319606083901b165b61ffff191660009081526000805160206123f28339815191526020526040902054151590565b949350505050565b600061144684848461162f565b801561143157506114316001600160601b0319606086901b1661140b565b6000610af96001600160601b03193360601b1661140b565b60008161148a576001610474565b600092915050565b80516000805160206123f28339815191529060005b818110156108f9576114ef6114e88583815181106114c7576114c761223e565b60200260200101516001600160a01b031660601b6001600160601b03191690565b849061170b565b611536578381815181106115055761150561223e565b602002602001015160405163298f10e760e11b8152600401610edc91906001600160a01b0391909116815260200190565b6001016114a7565b80516000805160206123f28339815191529060005b818110156108f957600084828151811061156f5761156f61223e565b60200260200101519050306001600160a01b0316816001600160a01b031614806115ae57506115ac84606083901b6001600160601b0319166117c5565b155b156115d75760405163b20f76e360e01b81526001600160a01b0382166004820152602401610edc565b50600101611553565b6001600090815260208290526040812054829080158061143157506001169392505050565b6000806000806116158686611866565b92509250925061162582826118b3565b5090949350505050565b6000806000856001600160a01b031685856040516024016116519291906123d8565b60408051601f198184030181529181526020820180516001600160e01b0316630b135d3f60e11b179052516116869190612340565b600060405180830381855afa9150503d80600081146116c1576040519150601f19603f3d011682016040523d82523d6000602084013e6116c6565b606091505b50915091508180156116da57506020815110155b801561170157508051630b135d3f60e11b906116ff90830160209081019084016122b7565b145b9695505050505050565b61ffff1981166000818152602084905260408120549091849181158061172f575080155b156117405760009350505050610474565b600160005b5060008181526020859052604090205461fffe1981168481036117a1576002841661fffc831661fffe19861660009586526020989098526040808620919098179190911790558252509283209290925550600191506104749050565b9150600181161580156117b357508015155b61174557506000979650505050505050565b60008261ffff1983168015806117e8575060008181526020839052604090205415155b156117f857600092505050610474565b60016000908152602083905260409020548015806118165750600181165b1561183a57600160008181526020859052604080822085905584825290205561185a565b600160009081526020849052604080822060028517905583825290208190555b50600195945050505050565b600080600083516041036118a05760208401516040850151606086015160001a6118928882858561196c565b9550955095505050506118ac565b50508151600091506002905b9250925092565b60008260038111156118c7576118c76122d0565b036118d0575050565b60018260038111156118e4576118e46122d0565b036119025760405163f645eedf60e01b815260040160405180910390fd5b6002826003811115611916576119166122d0565b036119375760405163fce698f760e01b815260048101829052602401610edc565b600382600381111561194b5761194b6122d0565b03610641576040516335e2f38360e21b815260048101829052602401610edc565b600080807f7fffffffffffffffffffffffffffffff5d576e7357a4501ddfe92f46681b20a08411156119a75750600091506003905082611a31565b604080516000808252602082018084528a905260ff891692820192909252606081018790526080810186905260019060a0016020604051602081039080840390855afa1580156119fb573d6000803e3d6000fd5b5050604051601f1901519150506001600160a01b038116611a2757506000925060019150829050611a31565b9250600091508190505b9450945094915050565b600060208284031215611a4d57600080fd5b81356001600160e01b0319811681146104e157600080fd5b634e487b7160e01b600052604160045260246000fd5b604051601f8201601f191681016001600160401b0381118282101715611aa357611aa3611a65565b604052919050565b60006020808385031215611abe57600080fd5b82356001600160401b0380821115611ad557600080fd5b818501915085601f830112611ae957600080fd5b813581811115611afb57611afb611a65565b611b0d601f8201601f19168501611a7b565b91508082528684828501011115611b2357600080fd5b8084840185840137600090820190930192909252509392505050565b6001600160a01b038116811461117557600080fd5b60008083601f840112611b6657600080fd5b5081356001600160401b03811115611b7d57600080fd5b602083019150836020828501011115611b9557600080fd5b9250929050565b600080600080600060808688031215611bb457600080fd5b8535611bbf81611b3f565b94506020860135611bcf81611b3f565b93506040860135925060608601356001600160401b03811115611bf157600080fd5b611bfd88828901611b54565b969995985093965092949392505050565b600080600060408486031215611c2357600080fd5b8335925060208401356001600160401b03811115611c4057600080fd5b611c4c86828701611b54565b9497909650939450505050565b60008083601f840112611c6b57600080fd5b5081356001600160401b03811115611c8257600080fd5b6020830191508360208260051b8501011115611b9557600080fd5b60008060008060408587031215611cb357600080fd5b84356001600160401b0380821115611cca57600080fd5b611cd688838901611c59565b90965094506020870135915080821115611cef57600080fd5b50611cfc87828801611c59565b95989497509550505050565b600080600060608486031215611d1d57600080fd5b83356001600160401b03811115611d3357600080fd5b84016101208187031215611d4657600080fd5b95602085013595506040909401359392505050565b600082601f830112611d6c57600080fd5b813560206001600160401b03821115611d8757611d87611a65565b8160051b611d96828201611a7b565b9283528481018201928281019087851115611db057600080fd5b83870192505b84831015611dd8578235611dc981611b3f565b82529183019190830190611db6565b979650505050505050565b60008060408385031215611df657600080fd5b82356001600160401b0380821115611e0d57600080fd5b611e1986838701611d5b565b93506020850135915080821115611e2f57600080fd5b50611e3c85828601611d5b565b9150509250929050565b60008060008060008060608789031215611e5f57600080fd5b86356001600160401b0380821115611e7657600080fd5b611e828a838b01611c59565b90985096506020890135915080821115611e9b57600080fd5b611ea78a838b01611c59565b90965094506040890135915080821115611ec057600080fd5b50611ecd89828a01611c59565b979a9699509497509295939492505050565b60008060408385031215611ef257600080fd5b8235611efd81611b3f565b946020939093013593505050565b600080600060408486031215611f2057600080fd5b8335611f2b81611b3f565b925060208401356001600160401b03811115611c4057600080fd5b60005b83811015611f61578181015183820152602001611f49565b50506000910152565b60008151808452611f82816020860160208601611f46565b601f01601f19169290920160200192915050565b60ff60f81b881681526000602060e06020840152611fb760e084018a611f6a565b8381036040850152611fc9818a611f6a565b606085018990526001600160a01b038816608086015260a0850187905284810360c08601528551808252602080880193509091019060005b8181101561201d57835183529284019291840191600101612001565b50909c9b505050505050505050505050565b6000806020838503121561204257600080fd5b82356001600160401b0381111561205857600080fd5b61206485828601611c59565b90969095509350505050565b60008151808452602080850194506020840160005b838110156120aa5781516001600160a01b031687529582019590820190600101612085565b509495945050505050565b6020815260006104e16020830184612070565b600080600080606085870312156120de57600080fd5b84356120e981611b3f565b93506020850135925060408501356001600160401b0381111561210b57600080fd5b611cfc87828801611b54565b60008060008060008060008060a0898b03121561213357600080fd5b883561213e81611b3f565b9750602089013561214e81611b3f565b965060408901356001600160401b038082111561216a57600080fd5b6121768c838d01611c59565b909850965060608b013591508082111561218f57600080fd5b61219b8c838d01611c59565b909650945060808b01359150808211156121b457600080fd5b506121c18b828c01611b54565b999c989b5096995094979396929594505050565b60008060008060008060a087890312156121ee57600080fd5b86356121f981611b3f565b9550602087013561220981611b3f565b9450604087013593506060870135925060808701356001600160401b0381111561223257600080fd5b611ecd89828a01611b54565b634e487b7160e01b600052603260045260246000fd5b60006020828403121561226657600080fd5b81356104e181611b3f565b6000808335601e1984360301811261228857600080fd5b8301803591506001600160401b038211156122a257600080fd5b602001915036819003821315611b9557600080fd5b6000602082840312156122c957600080fd5b5051919050565b634e487b7160e01b600052602160045260246000fd5b600080858511156122f657600080fd5b8386111561230357600080fd5b5050820193919092039150565b6001600160601b031981358181169160148510156123385780818660140360031b1b83161692505b505092915050565b60008251612352818460208701611f46565b9190910192915050565b60408152600061236f6040830185612070565b82810360208401526123818185612070565b95945050505050565b60208082528181018390526000908460408401835b868110156123cd5782356123b281611b3f565b6001600160a01b03168252918301919083019060010161239f565b509695505050505050565b8281526040602082015260006114316040830184611f6a56fe0eb5184329babcda7203727c83eff940fb292fc735f61720a6182b755bf7f900a26469706673582212209886c7cdbc0a18118cf4bf4cab536cb5ed9f8de99c7133130bd9380324628aa864736f6c63430008190033","linkReferences":{}},"methodIdentifiers":{"ACCOUNT_IMPLEMENTATION()":"290ab984","ENTRY_POINT()":"94430fa5","acceptOwnership()":"79ba5097","addStake(uint32,uint256)":"fbb1c3d4","createAccount(address[],uint256)":"b54c02f2","createAccountSingle(address,uint256)":"2796c323","getAddress(address[],uint256)":"94f7e8e0","owner()":"8da5cb5b","pendingOwner()":"e30c3978","renounceOwnership()":"715018a6","transferOwnership(address)":"f2fde38b","unlockStake()":"bb9fe6bf","withdraw(address,address,uint256)":"d9caed12","withdrawStake(address)":"c23a5cea"},"id":49}